{
  "address": "0x04d2B3DdCdb2790571Ca01F4768e3cC98FCb0D2B",
  "abi": [
    {
      "inputs": [],
      "name": "AmountZero",
      "type": "error"
    },
    {
      "inputs": [],
      "name": "HighThresholdZero",
      "type": "error"
    },
    {
      "inputs": [],
      "name": "InsufficientBalance",
      "type": "error"
    },
    {
      "inputs": [],
      "name": "InvalidProof",
      "type": "error"
    },
    {
      "inputs": [],
      "name": "LowThresholdHigherThanHigh",
      "type": "error"
    },
    {
      "inputs": [],
      "name": "NoSuchMerkleFunderDepository",
      "type": "error"
    },
    {
      "inputs": [],
      "name": "RecipientAddressZero",
      "type": "error"
    },
    {
      "inputs": [],
      "name": "RecipientBalanceLargerThanLowThreshold",
      "type": "error"
    },
    {
      "inputs": [],
      "name": "RootZero",
      "type": "error"
    },
    {
      "anonymous": false,
      "inputs": [
        {
          "indexed": true,
          "internalType": "address",
          "name": "merkleFunderDepository",
          "type": "address"
        },
        {
          "indexed": false,
          "internalType": "address",
          "name": "owner",
          "type": "address"
        },
        {
          "indexed": false,
          "internalType": "bytes32",
          "name": "root",
          "type": "bytes32"
        }
      ],
      "name": "DeployedMerkleFunderDepository",
      "type": "event"
    },
    {
      "anonymous": false,
      "inputs": [
        {
          "indexed": true,
          "internalType": "address",
          "name": "merkleFunderDepository",
          "type": "address"
        },
        {
          "indexed": false,
          "internalType": "address",
          "name": "recipient",
          "type": "address"
        },
        {
          "indexed": false,
          "internalType": "uint256",
          "name": "amount",
          "type": "uint256"
        }
      ],
      "name": "Funded",
      "type": "event"
    },
    {
      "anonymous": false,
      "inputs": [
        {
          "indexed": true,
          "internalType": "address",
          "name": "merkleFunderDepository",
          "type": "address"
        },
        {
          "indexed": false,
          "internalType": "address",
          "name": "recipient",
          "type": "address"
        },
        {
          "indexed": false,
          "internalType": "uint256",
          "name": "amount",
          "type": "uint256"
        }
      ],
      "name": "Withdrew",
      "type": "event"
    },
    {
      "inputs": [
        {
          "internalType": "address",
          "name": "owner",
          "type": "address"
        },
        {
          "internalType": "bytes32",
          "name": "root",
          "type": "bytes32"
        }
      ],
      "name": "computeMerkleFunderDepositoryAddress",
      "outputs": [
        {
          "internalType": "address",
          "name": "merkleFunderDepository",
          "type": "address"
        }
      ],
      "stateMutability": "view",
      "type": "function"
    },
    {
      "inputs": [
        {
          "internalType": "address",
          "name": "account",
          "type": "address"
        }
      ],
      "name": "containsBytecode",
      "outputs": [
        {
          "internalType": "bool",
          "name": "",
          "type": "bool"
        }
      ],
      "stateMutability": "view",
      "type": "function"
    },
    {
      "inputs": [
        {
          "internalType": "address",
          "name": "owner",
          "type": "address"
        },
        {
          "internalType": "bytes32",
          "name": "root",
          "type": "bytes32"
        }
      ],
      "name": "deployMerkleFunderDepository",
      "outputs": [
        {
          "internalType": "address payable",
          "name": "merkleFunderDepository",
          "type": "address"
        }
      ],
      "stateMutability": "nonpayable",
      "type": "function"
    },
    {
      "inputs": [
        {
          "internalType": "address",
          "name": "owner",
          "type": "address"
        },
        {
          "internalType": "bytes32",
          "name": "root",
          "type": "bytes32"
        },
        {
          "internalType": "bytes32[]",
          "name": "proof",
          "type": "bytes32[]"
        },
        {
          "internalType": "address",
          "name": "recipient",
          "type": "address"
        },
        {
          "internalType": "uint256",
          "name": "lowThreshold",
          "type": "uint256"
        },
        {
          "internalType": "uint256",
          "name": "highThreshold",
          "type": "uint256"
        }
      ],
      "name": "fund",
      "outputs": [
        {
          "internalType": "uint256",
          "name": "amount",
          "type": "uint256"
        }
      ],
      "stateMutability": "nonpayable",
      "type": "function"
    },
    {
      "inputs": [
        {
          "internalType": "address",
          "name": "account",
          "type": "address"
        }
      ],
      "name": "getBalance",
      "outputs": [
        {
          "internalType": "uint256",
          "name": "",
          "type": "uint256"
        }
      ],
      "stateMutability": "view",
      "type": "function"
    },
    {
      "inputs": [],
      "name": "getBlockBasefee",
      "outputs": [
        {
          "internalType": "uint256",
          "name": "",
          "type": "uint256"
        }
      ],
      "stateMutability": "view",
      "type": "function"
    },
    {
      "inputs": [],
      "name": "getBlockNumber",
      "outputs": [
        {
          "internalType": "uint256",
          "name": "",
          "type": "uint256"
        }
      ],
      "stateMutability": "view",
      "type": "function"
    },
    {
      "inputs": [],
      "name": "getBlockTimestamp",
      "outputs": [
        {
          "internalType": "uint256",
          "name": "",
          "type": "uint256"
        }
      ],
      "stateMutability": "view",
      "type": "function"
    },
    {
      "inputs": [],
      "name": "getChainId",
      "outputs": [
        {
          "internalType": "uint256",
          "name": "",
          "type": "uint256"
        }
      ],
      "stateMutability": "view",
      "type": "function"
    },
    {
      "inputs": [
        {
          "internalType": "bytes[]",
          "name": "data",
          "type": "bytes[]"
        }
      ],
      "name": "multicall",
      "outputs": [
        {
          "internalType": "bytes[]",
          "name": "returndata",
          "type": "bytes[]"
        }
      ],
      "stateMutability": "nonpayable",
      "type": "function"
    },
    {
      "inputs": [
        {
          "internalType": "address",
          "name": "",
          "type": "address"
        },
        {
          "internalType": "bytes32",
          "name": "",
          "type": "bytes32"
        }
      ],
      "name": "ownerToRootToMerkleFunderDepositoryAddress",
      "outputs": [
        {
          "internalType": "address payable",
          "name": "",
          "type": "address"
        }
      ],
      "stateMutability": "view",
      "type": "function"
    },
    {
      "inputs": [
        {
          "internalType": "bytes[]",
          "name": "data",
          "type": "bytes[]"
        }
      ],
      "name": "tryMulticall",
      "outputs": [
        {
          "internalType": "bool[]",
          "name": "successes",
          "type": "bool[]"
        },
        {
          "internalType": "bytes[]",
          "name": "returndata",
          "type": "bytes[]"
        }
      ],
      "stateMutability": "nonpayable",
      "type": "function"
    },
    {
      "inputs": [
        {
          "internalType": "bytes32",
          "name": "root",
          "type": "bytes32"
        },
        {
          "internalType": "address",
          "name": "recipient",
          "type": "address"
        },
        {
          "internalType": "uint256",
          "name": "amount",
          "type": "uint256"
        }
      ],
      "name": "withdraw",
      "outputs": [],
      "stateMutability": "nonpayable",
      "type": "function"
    },
    {
      "inputs": [
        {
          "internalType": "bytes32",
          "name": "root",
          "type": "bytes32"
        },
        {
          "internalType": "address",
          "name": "recipient",
          "type": "address"
        }
      ],
      "name": "withdrawAll",
      "outputs": [
        {
          "internalType": "uint256",
          "name": "amount",
          "type": "uint256"
        }
      ],
      "stateMutability": "nonpayable",
      "type": "function"
    }
  ],
  "transactionHash": "0x4fe6e43d3c80da403499d8a009a93e6584809304d6efe0b71616e72f0009fec7",
  "args": [],
  "numDeployments": 1,
  "solcInputHash": "1ea0028e4c45b95e14f60a837d4b2de4",
  "bytecode": "0x608060405234801561001057600080fd5b506113c8806100206000396000f3fe608060405234801561001057600080fd5b50600436106100ea5760003560e01c8063796b89b91161008c578063a6fb97d111610066578063a6fb97d1146101c8578063ac9650d8146101dd578063adb8e737146101fd578063f8b2cb4f1461022e57600080fd5b8063796b89b91461019c5780637997ccf3146101a257806390731b13146101b557600080fd5b8063437b9116116100c8578063437b91161461011d5780634be9b0441461013e5780634dcc19fe146101695780635989eaeb1461016f57600080fd5b80633408e470146100ef578063390317991461010457806342cbb15c14610117575b600080fd5b465b6040519081526020015b60405180910390f35b6100f1610112366004610cc9565b610249565b436100f1565b61013061012b366004610d4b565b61053f565b6040516100fb929190610e21565b61015161014c366004610e7a565b6106a5565b6040516001600160a01b0390911681526020016100fb565b486100f1565b61018c61017d366004610ea4565b6001600160a01b03163b151590565b60405190151581526020016100fb565b426100f1565b6101516101b0366004610e7a565b61079c565b6100f16101c3366004610ebf565b61083e565b6101db6101d6366004610eeb565b610872565b005b6101f06101eb366004610d4b565b6109ec565b6040516100fb9190610f20565b61015161020b366004610e7a565b60006020818152928152604080822090935290815220546001600160a01b031681565b6100f161023c366004610ea4565b6001600160a01b03163190565b60006001600160a01b038416610272576040516366736f6360e01b815260040160405180910390fd5b818311156102ac576040517f695d28a400000000000000000000000000000000000000000000000000000000815260040160405180910390fd5b816000036102e6576040517f48bfa51a00000000000000000000000000000000000000000000000000000000815260040160405180910390fd5b604080516001600160a01b03861660208201529081018490526060810183905260009060800160408051601f19818403018152828252805160209182012090830152016040516020818303038152906040528051906020012090506103818787808060200260200160405190810160405280939291908181526020018383602002808284376000920191909152508c9250859150610b8b9050565b6103b7576040517f09bde33900000000000000000000000000000000000000000000000000000000815260040160405180910390fd5b6001600160a01b03851631848111156103fc576040517f08dba7b400000000000000000000000000000000000000000000000000000000815260040160405180910390fd5b6001600160a01b03808b166000908152602081815260408083208d8452909152902054168061043e5760405163cda47a2960e01b815260040160405180910390fd5b8185036001600160a01b0382163181111561046357816001600160a01b031631610465565b805b945084600003610488576040516365e52d5160e11b815260040160405180910390fd5b60405163a9059cbb60e01b81526001600160a01b0389811660048301526024820187905283169063a9059cbb90604401600060405180830381600087803b1580156104d257600080fd5b505af11580156104e6573d6000803e3d6000fd5b5050604080516001600160a01b038c81168252602082018a9052861693507f3b5083eec1a1116c56de5d6841cff8efc6a0aec9850e836ec509d6ce024ea56192500160405180910390a250505050979650505050505050565b606080828067ffffffffffffffff81111561055c5761055c610f33565b604051908082528060200260200182016040528015610585578160200160208202803683370190505b5092508067ffffffffffffffff8111156105a1576105a1610f33565b6040519080825280602002602001820160405280156105d457816020015b60608152602001906001900390816105bf5790505b50915060005b8181101561069c57308686838181106105f5576105f5610f49565b90506020028101906106079190610f5f565b604051610615929190610fa6565b600060405180830381855af49150503d8060008114610650576040519150601f19603f3d011682016040523d82523d6000602084013e610655565b606091505b5085838151811061066857610668610f49565b6020026020010185848151811061068157610681610f49565b602090810291909101019190915290151590526001016105da565b50509250929050565b6000816106c557604051636fe692dd60e11b815260040160405180910390fd5b6000801b83836040516106d790610c54565b6001600160a01b03909216825260208201526040018190604051809103906000f590508015801561070c573d6000803e3d6000fd5b506001600160a01b0384811660008181526020818152604080832088845282529182902080547fffffffffffffffffffffffff00000000000000000000000000000000000000001694861694851790558151928352820186905292935090917fdaf781ca38299164d4878957537ed5f7e762b7e9d8d19be39979fb0a165c4684910160405180910390a292915050565b6000816107bc57604051636fe692dd60e11b815260040160405180910390fd5b604051610837906000906107d260208201610c54565b601f1982820381018352601f9091011660408181526001600160a01b0388166020830152810186905260600160408051601f198184030181529082905261081c9291602001610fb6565b60405160208183030381529060405280519060200120610ba1565b9392505050565b336000908152602081815260408083208584529091529020546001600160a01b03163161086c838383610872565b92915050565b6001600160a01b038216610899576040516366736f6360e01b815260040160405180910390fd5b806000036108ba576040516365e52d5160e11b815260040160405180910390fd5b336000908152602081815260408083208684529091529020546001600160a01b0316806108fa5760405163cda47a2960e01b815260040160405180910390fd5b81816001600160a01b031631101561093e576040517ff4d678b800000000000000000000000000000000000000000000000000000000815260040160405180910390fd5b60405163a9059cbb60e01b81526001600160a01b0384811660048301526024820184905282169063a9059cbb90604401600060405180830381600087803b15801561098857600080fd5b505af115801561099c573d6000803e3d6000fd5b5050604080516001600160a01b03878116825260208201879052851693507f0472be967f9a37138dfea1875af44784cafb79f92044ab33d7d6958eddd9ca6c92500160405180910390a250505050565b6060818067ffffffffffffffff811115610a0857610a08610f33565b604051908082528060200260200182016040528015610a3b57816020015b6060815260200190600190039081610a265790505b50915060005b81811015610b8357600030868684818110610a5e57610a5e610f49565b9050602002810190610a709190610f5f565b604051610a7e929190610fa6565b600060405180830381855af49150503d8060008114610ab9576040519150601f19603f3d011682016040523d82523d6000602084013e610abe565b606091505b50858481518110610ad157610ad1610f49565b6020908102919091010152905080610b7a576000848381518110610af757610af7610f49565b60200260200101519050600081511115610b145780518082602001fd5b6040517f08c379a000000000000000000000000000000000000000000000000000000000815260206004820152601b60248201527f4d756c746963616c6c3a204e6f2072657665727420737472696e670000000000604482015260640160405180910390fd5b50600101610a41565b505092915050565b600082610b988584610bae565b14949350505050565b6000610837838330610bfb565b600081815b8451811015610bf357610bdf82868381518110610bd257610bd2610f49565b6020026020010151610c25565b915080610beb81610fe5565b915050610bb3565b509392505050565b6000604051836040820152846020820152828152600b8101905060ff815360559020949350505050565b6000818310610c41576000828152602084905260409020610837565b6000838152602083905260409020610837565b6103868061100d83390190565b80356001600160a01b0381168114610c7857600080fd5b919050565b60008083601f840112610c8f57600080fd5b50813567ffffffffffffffff811115610ca757600080fd5b6020830191508360208260051b8501011115610cc257600080fd5b9250929050565b600080600080600080600060c0888a031215610ce457600080fd5b610ced88610c61565b965060208801359550604088013567ffffffffffffffff811115610d1057600080fd5b610d1c8a828b01610c7d565b9096509450610d2f905060608901610c61565b92506080880135915060a0880135905092959891949750929550565b60008060208385031215610d5e57600080fd5b823567ffffffffffffffff811115610d7557600080fd5b610d8185828601610c7d565b90969095509350505050565b60005b83811015610da8578181015183820152602001610d90565b50506000910152565b600082825180855260208086019550808260051b84010181860160005b84811015610e1457601f1980878503018a5282518051808652610df681888801898501610d8d565b9a86019a601f01909116939093018401925090830190600101610dce565b5090979650505050505050565b604080825283519082018190526000906020906060840190828701845b82811015610e5c578151151584529284019290840190600101610e3e565b50505083810382850152610e708186610db1565b9695505050505050565b60008060408385031215610e8d57600080fd5b610e9683610c61565b946020939093013593505050565b600060208284031215610eb657600080fd5b61083782610c61565b60008060408385031215610ed257600080fd5b82359150610ee260208401610c61565b90509250929050565b600080600060608486031215610f0057600080fd5b83359250610f1060208501610c61565b9150604084013590509250925092565b6020815260006108376020830184610db1565b634e487b7160e01b600052604160045260246000fd5b634e487b7160e01b600052603260045260246000fd5b6000808335601e19843603018112610f7657600080fd5b83018035915067ffffffffffffffff821115610f9157600080fd5b602001915036819003821315610cc257600080fd5b8183823760009101908152919050565b60008351610fc8818460208801610d8d565b835190830190610fdc818360208801610d8d565b01949350505050565b60006001820161100557634e487b7160e01b600052601160045260246000fd5b506001019056fe60e060405234801561001057600080fd5b5060405161038638038061038683398101604081905261002f9161004a565b336080526001600160a01b039190911660a05260c052610084565b6000806040838503121561005d57600080fd5b82516001600160a01b038116811461007457600080fd5b6020939093015192949293505050565b60805160a05160c0516102ce6100b8600039600061011501526000606101526000818160bf015261015d01526102ce6000f3fe6080604052600436106100435760003560e01c80638da5cb5b1461004f578063a8c54545146100ad578063a9059cbb146100e1578063ebf0c7171461010357600080fd5b3661004a57005b600080fd5b34801561005b57600080fd5b506100837f000000000000000000000000000000000000000000000000000000000000000081565b60405173ffffffffffffffffffffffffffffffffffffffff90911681526020015b60405180910390f35b3480156100b957600080fd5b506100837f000000000000000000000000000000000000000000000000000000000000000081565b3480156100ed57600080fd5b506101016100fc366004610253565b610145565b005b34801561010f57600080fd5b506101377f000000000000000000000000000000000000000000000000000000000000000081565b6040519081526020016100a4565b3373ffffffffffffffffffffffffffffffffffffffff7f000000000000000000000000000000000000000000000000000000000000000016146101b4576040517f7d5820a800000000000000000000000000000000000000000000000000000000815260040160405180910390fd5b60008273ffffffffffffffffffffffffffffffffffffffff168260405160006040518083038185875af1925050503d806000811461020e576040519150601f19603f3d011682016040523d82523d6000602084013e610213565b606091505b505090508061024e576040517f28dc5c3300000000000000000000000000000000000000000000000000000000815260040160405180910390fd5b505050565b6000806040838503121561026657600080fd5b823573ffffffffffffffffffffffffffffffffffffffff8116811461028a57600080fd5b94602093909301359350505056fea264697066735822122064ed49ef8d4b4d3f9725a7395b4ebf0f32e867e2dcc558528a1c1a023050fb1864736f6c63430008110033a26469706673582212201586d13ad0f88ec1b7bbe7f5b01547b0d09134ce3128c95e764b24d9649da0c664736f6c63430008110033",
  "devdoc": {
    "details": "MerkleFunder inherits SelfMulticall to allow `fund()` to be multi-called so that multiple fundings can be executed in a single transaction without depending on an external contract. Furthermore, it inherits ExtendedSelfMulticall to allow `getBlockNumber()` be multi-called to avoid race conditions that would have caused the bot implementation to make redundant transactions that revert.",
    "kind": "dev",
    "methods": {
      "computeMerkleFunderDepositoryAddress(address,bytes32)": {
        "params": {
          "owner": "Owner address",
          "root": "Merkle tree root"
        },
        "returns": {
          "merkleFunderDepository": "MerkleFunderDepository address"
        }
      },
      "containsBytecode(address)": {
        "details": "An account not containing any bytecode does not indicate that it is an EOA or it will not contain any bytecode in the future. Contract construction and `SELFDESTRUCT` updates the bytecode at the end of the transaction.",
        "returns": {
          "_0": "If the account contains bytecode"
        }
      },
      "deployMerkleFunderDepository(address,bytes32)": {
        "details": "The owner address is allowed to be zero in case the deployer wants to disallow `withdraw()` from being called for the respective MerkleFunderDepository. See `fund()` for how the Merkle tree leaves are derived and how the comprising parameters are validated.",
        "params": {
          "owner": "Owner address",
          "root": "Merkle tree root"
        },
        "returns": {
          "merkleFunderDepository": "MerkleFunderDepository address"
        }
      },
      "fund(address,bytes32,bytes32[],address,uint256,uint256)": {
        "params": {
          "highThreshold": "High hysteresis threshold",
          "lowThreshold": "Low hysteresis threshold",
          "owner": "Owner address",
          "proof": "Merkle tree proof",
          "recipient": "Recipient address",
          "root": "Merkle tree root"
        },
        "returns": {
          "amount": "Amount used in funding"
        }
      },
      "getBalance(address)": {
        "params": {
          "account": "Account address"
        },
        "returns": {
          "_0": "Account balance"
        }
      },
      "getBlockBasefee()": {
        "returns": {
          "_0": "Current block basefee"
        }
      },
      "getBlockNumber()": {
        "returns": {
          "_0": "Current block number"
        }
      },
      "getBlockTimestamp()": {
        "returns": {
          "_0": "Current block timestamp"
        }
      },
      "getChainId()": {
        "returns": {
          "_0": "Chain ID"
        }
      },
      "multicall(bytes[])": {
        "params": {
          "data": "Array of calldata of batched calls"
        },
        "returns": {
          "returndata": "Array of returndata of batched calls"
        }
      },
      "tryMulticall(bytes[])": {
        "params": {
          "data": "Array of calldata of batched calls"
        },
        "returns": {
          "returndata": "Array of returndata of batched calls",
          "successes": "Array of success conditions of batched calls"
        }
      },
      "withdraw(bytes32,address,uint256)": {
        "params": {
          "amount": "Withdrawal amount",
          "recipient": "Recipient address",
          "root": "Merkle tree root"
        }
      },
      "withdrawAll(bytes32,address)": {
        "params": {
          "recipient": "Recipient address",
          "root": "Merkle tree root"
        },
        "returns": {
          "amount": "Withdrawal amount"
        }
      }
    },
    "stateVariables": {
      "ownerToRootToMerkleFunderDepositoryAddress": {
        "details": "The MerkleFunderDepository address can be derived from the owner address and the Merkle tree root using `computeMerkleFunderDepositoryAddress()`, yet doing so is more expensive than reading it from this mapping, which is why we prefer storing it during deployment"
      }
    },
    "title": "Contract that can be called to deploy MerkleFunderDepository contracts or transfer the funds in them within the limitations specified by the respective Merkle trees",
    "version": 1
  },
  "userdoc": {
    "kind": "user",
    "methods": {
      "computeMerkleFunderDepositoryAddress(address,bytes32)": {
        "notice": "Computes the address of the MerkleFunderDepository"
      },
      "containsBytecode(address)": {
        "notice": "Returns if the account contains bytecode"
      },
      "deployMerkleFunderDepository(address,bytes32)": {
        "notice": "Called to deterministically deploy the MerkleFunderDepository with the owner address and the Merkle tree root"
      },
      "fund(address,bytes32,bytes32[],address,uint256,uint256)": {
        "notice": "Called to transfer funds from a MerkleFunderDepository to the recipient within the limitations specified by the respective Merkle tree"
      },
      "getBalance(address)": {
        "notice": "Returns the account balance"
      },
      "getBlockBasefee()": {
        "notice": "Returns the current block basefee"
      },
      "getBlockNumber()": {
        "notice": "Returns the current block number"
      },
      "getBlockTimestamp()": {
        "notice": "Returns the current block timestamp"
      },
      "getChainId()": {
        "notice": "Returns the chain ID"
      },
      "multicall(bytes[])": {
        "notice": "Batches calls to the inheriting contract and reverts as soon as one of the batched calls reverts"
      },
      "ownerToRootToMerkleFunderDepositoryAddress(address,bytes32)": {
        "notice": "Returns the address of the MerkleFunderDepository deployed for the owner address and the Merkle tree root, and zero-address if such a MerkleFunderDepository is not deployed yet"
      },
      "tryMulticall(bytes[])": {
        "notice": "Batches calls to the inheriting contract but does not revert if any of the batched calls reverts"
      },
      "withdraw(bytes32,address,uint256)": {
        "notice": "Called by the owner of the respective MerkleFunderDepository to withdraw funds in a way that is exempt from the limitations specified by the respective Merkle tree"
      },
      "withdrawAll(bytes32,address)": {
        "notice": "Called by the owner of the respective MerkleFunderDepository to withdraw its entire balance in a way that is exempt from the limitations specified by the respective Merkle tree"
      }
    },
    "notice": "Use-cases such as self-funded data feeds require users to keep multiple accounts funded. The only way to achieve this without relying on on-chain activity is running a bot that triggers the funding using a hot wallet. In the naive implementation, the funds to be used would also be kept by this hot wallet, which is obviously risky. This contract allows one to deploy a MerkleFunderDepository where they can keep the funds, which this contract only allows to be transferred within the limitations specified by the respective Merkle tree. This means the bot's hot wallet no longer needs to be trusted with the funds, and multiple bots with different hot wallets can be run against the same MerkleFunderDepository deployment for redundancy.",
    "version": 1
  },
  "storageLayout": {
    "storage": [
      {
        "astId": 902,
        "contract": "contracts/MerkleFunder.sol:MerkleFunder",
        "label": "ownerToRootToMerkleFunderDepositoryAddress",
        "offset": 0,
        "slot": "0",
        "type": "t_mapping(t_address,t_mapping(t_bytes32,t_address_payable))"
      }
    ],
    "types": {
      "t_address": {
        "encoding": "inplace",
        "label": "address",
        "numberOfBytes": "20"
      },
      "t_address_payable": {
        "encoding": "inplace",
        "label": "address payable",
        "numberOfBytes": "20"
      },
      "t_bytes32": {
        "encoding": "inplace",
        "label": "bytes32",
        "numberOfBytes": "32"
      },
      "t_mapping(t_address,t_mapping(t_bytes32,t_address_payable))": {
        "encoding": "mapping",
        "key": "t_address",
        "label": "mapping(address => mapping(bytes32 => address payable))",
        "numberOfBytes": "32",
        "value": "t_mapping(t_bytes32,t_address_payable)"
      },
      "t_mapping(t_bytes32,t_address_payable)": {
        "encoding": "mapping",
        "key": "t_bytes32",
        "label": "mapping(bytes32 => address payable)",
        "numberOfBytes": "32",
        "value": "t_address_payable"
      }
    }
  }
}